:020000040800F2
:100000000000012081060008090600080F0600080C
:10001000150600081B060008210600080000000065
:10002000000000000000000000000000270600089B
:1000300035060008000000004306000851060008CD
:10004000D1060008D1060008D1060008D106000834
:10005000D1060008D1060008D1060008D106000824
:10006000D1060008D1060008D1060008D106000814
:10007000D1060008D1060008D1060008D106000804
:10008000D1060008D1060008D106000800000000D3
:10009000000000000000000000000000D106000881
:1000A000D1060008D1060008D1060008D1060008D4
:1000B000D1060008D1060008D1060008D1060008C4
:1000C000D1060008D1060008D1060008D1060008B4
:1000D000D1060008D1060008D10600080000000083
:1000E000D1060008D1060008D10600080000000073
:1000F000000000000000000000000000D106000821
:1001000000000000D1060008D1060008D106000852
:1001100000000000000000000000000000000000DF
:10012000D1060008D1060008D1060008D106000853
:10013000D1060008000000000000000000000000E0
:10014000000000000000000000000000D1060008D0
:10015000D1060008D1060008D1060008D106000823
:10016000D1060008D10600080000000000000000D1
:10017000000000000000000000000000000000007F
:1001800000000000D1060008000000000000000090
:04019000D10600088C
:1001940010B5054C237833B9044B13B10448AFF3BD
:1001A40000800123237010BD140000200000000013
:1001B4004407000808B5034B1BB103490348AFF3D8
:1001C400008008BD0000000018000020440700085B
:1001D40080B485B000AF0023FB7326E1FA7B994914
:1001E40013465B0013445B000B441B78BB73BB7B5F
:1001F400032B00F21F81944B1B6BBA7B012101FA84
:1002040002F21146904A0B431363BB7B8F4A52F8A8
:100214002330BB60FA7B8B4913465B0013445B00BD
:100224000B4401331B78FB71BB681B68FA795200DD
:100234000132012101FA02F2D2431A40BB681A606A
:10024400FA7B804913465B0013445B000B44023382
:100254001B78BB71BB79012B02D0BB79022B6ED109
:10026400BB681A68FB795B00032101FA03F3DB43E3
:100274001A40BB681A60BB681B68B979FA795200E6
:1002840001FA02F21A43BB681A60FA7B6D491346FD
:100294005B0013445B000B4404331B78012B09D12E
:1002A400BB685B68FA79012101FA02F21A43BB6860
:1002B4005A6009E0BB685B68FA79012101FA02F22D
:1002C400D2431A40BB685A60FA7B5E4913465B000E
:1002D40013445B000B4405331B78072B11D8FA7BBE
:1002E400584913465B0013445B000B4405331B78E9
:1002F4001A46FB799B0002FA03F31A46BB681A629A
:100304008FE0FA7B4F4913465B0013445B000B44B8
:1003140005331B780F2B00F28480FA7B494913467E
:100324005B0013445B000B4405331B781A46FB79CE
:100334009B0002FA03F31A46BB685A6271E0FA7B27
:10034400404913465B0013445B000B4402331B78A3
:10035400002B67D1BB681B68FA795200012101FAAE
:1003640002F2D2431A40BB681A60FA7B354913463D
:100374005B0013445B000B4403331B78012B16D141
:10038400BB68DB68FA795200012101FA02F21A43D0
:10039400BB68DA60BB68DB68FA795200013201217C
:1003A40001FA02F2D2431A40BB68DA603AE0FA7BFF
:1003B400244913465B0013445B000B4403331B784E
:1003C400022B16D1BB68DB68FA7952000132012195
:1003D40001FA02F21A43BB68DA60BB68DB68FA7997
:1003E4005200012101FA02F2D2431A40BB68DA60DA
:1003F40018E0BB68DB68FA795200012101FA02F2C5
:10040400D2431A40BB68DA60BB68DB68FA795200F1
:100414000132012101FA02F2D2431A40BB68DA60C8
:1004240000E000BFFB7B0133FB73FB7B012B7FF6FA
:10043400D5AE00E000BF00BF1437BD465DF8047BB5
:10044400704700BF5C07000800380240000000202D
:1004540080B400AF054B81221A60054B00221A605C
:1004640000BFBD465DF8047B704700BF0038024002
:100474000838024080B483B000AF03460A46FB71DB
:100484001346BB71BB791F2B3AD8FB79032B37D8A2
:1004940001A252F823F000BFAD040008C304000811
:1004A400D9040008EF040008184B1B68BA7901212D
:1004B40001FA02F21146154A0B43136020E0144B73
:1004C4001B68BA79012101FA02F21146104A0B4362
:1004D400136015E00F4B1B68BA79012101FA02F28F
:1004E40011460C4A0B4313600AE00B4B1B68BA79A4
:1004F400012101FA02F21146074A0B43136000BFBF
:1005040000BF0C37BD465DF8047B704730380240AD
:1005140034380240403802404438024080B500AFCD
:10052400FFF796FF00210020FFF7A4FF0121002020
:10053400FFF7A0FF01210220FFF79CFFFFF748FE11
:1005440000F020F8FEE7000080B483B000AF03465B
:10055400FB7197F90730002B0BDBFB7903F01F02CB
:10056400074997F907305B09012000FA02F241F8C4
:10057400232000BF0C37BD465DF8047B704700BFE5
:1005840000E100E080B500AF1C4B1B6C1B4A43F03C
:10059400020313641D20FFF7D7FF194B4FF47A723F
:1005A4009A62174B6422DA62154B00221A61144BCB
:1005B4009B69134A43F060039361114B9B69104A92
:1005C40023F0030393610E4B1B6A0D4A23F00203CD
:1005D40013620B4B1B6A0A4A43F001031362084B74
:1005E4000A225A63064BDB68054A43F00103D360D1
:1005F400034B01221A6000BF80BD00BF00380240D7
:100604000004004080B400AFFEE780B400AFFEE712
:1006140080B400AFFEE780B400AFFEE780B400AF63
:10062400FEE780B400AF00BFBD465DF8047B7047B1
:1006340080B400AF00BFBD465DF8047B704780B452
:1006440000AF00BFBD465DF8047B704780B500AFC6
:1006540000F03EF800BF80BD80B400AF064BD3F875
:100664008830054A43F47003C2F8883000BFBD46A1
:100674005DF8047B704700BF00ED00E0DFF834D084
:100684000D480E490E4A002302E0D458C4500433E6
:10069400C4188C42F9D30B4A0B4C002301E01360BD
:1006A4000432A242FBD3FFF7D7FF00F025F8FFF78F
:1006B40035FF7047000001200000002014000020D6
:1006C400700700081400002034000020FEE700003A
:1006D40080B400AF064B1B781A46064B1B681344C4
:1006E400044A136000BFBD465DF8047B704700BF39
:1006F400100000203000002070B50D4D0D4C641B1F
:10070400A4100026A64209D10B4D0C4C00F018F899
:10071400641BA4100026A64205D170BD55F8043B05
:1007240098470136EEE755F8043B98470136F2E75F
:100734006807000868070008680700086C070008D5
:10074400F8B500BFF8BC08BC9E467047F8B500BFBA
:08075400F8BC08BC9E4670478A
:0C075C000104020000020005020000027F
:04076800B9010008CB
:04076C0095010008EB
:10077000000002400004024000080240000C024059
:040780000100000074
:040000050800068168
:00000001FF
