:020000040800F2
:100000000000012041060008C5050008CB050008D6
:10001000D1050008D7050008DD0500080000000034
:10002000000000000000000000000000E3050008E0
:10003000F105000800000000FF0500080D0600089B
:100040009106000891060008910600089106000834
:100050009106000891060008910600089106000824
:100060009106000891060008910600089106000814
:100070009106000891060008910600089106000804
:100080009106000891060008910600080000000093
:1000900000000000000000000000000091060008C1
:1000A00091060008910600089106000891060008D4
:1000B00091060008910600089106000891060008C4
:1000C00091060008910600089106000891060008B4
:1000D0009106000891060008910600080000000043
:1000E0009106000891060008910600080000000033
:1000F0000000000000000000000000009106000861
:100100000000000091060008910600089106000812
:1001100000000000000000000000000000000000DF
:100120009106000891060008910600089106000853
:100130009106000800000000000000000000000020
:100140000000000000000000000000009106000810
:100150009106000891060008910600089106000823
:100160009106000891060008000000000000000051
:10017000000000000000000000000000000000007F
:1001800000000000910600080000000000000000D0
:0401900091060008CC
:1001940010B5054C237833B9044B13B10448AFF3BD
:1001A40000800123237010BD100000200000000017
:1001B400DC06000808B5034B1BB103490348AFF341
:1001C400008008BD0000000014000020DC060008C8
:1001D40080B485B000AF0023FB73C9E0FA7B6A49A1
:1001E40013469B0013440B441B78BB73BB7B032B4C
:1001F40000F2C380654B1B6BBA7B012101FA02F24A
:100204001146624A0B431363BB7B614A52F82330A5
:10021400BB60FA7B5C4913469B0013440B440133D7
:100224001B78FB71BB681B68FA795200013201210B
:1002340001FA02F2D2431A40BB681A60FA7B5249AF
:1002440013469B0013440B4402331B78002B28D025
:10025400BB681B68FA795200012101FA02F21A43C1
:10026400BB681A60FA7B484913469B0013440B444D
:1002740004331B78002B09D0BB685B68FA79012131
:1002840001FA02F21A43BB685A606EE0BB685B680D
:10029400FA79012101FA02F2D2431A40BB685A608A
:1002A40063E0BB681B68FA795200012101FA02F28B
:1002B400D2431A40BB681A60FA7B334913469B0049
:1002C40013440B4403331B78012B16D1BB68DB6842
:1002D400FA795200012101FA02F21A43BB68DA608A
:1002E400BB68DB68FA7952000132012101FA02F29B
:1002F400D2431A40BB68DA6037E0FA7B22491346DE
:100304009B0013440B4403331B78022B16D1BB68A8
:10031400DB68FA7952000132012101FA02F21A4330
:10032400BB68DA60BB68DB68FA795200012101FA24
:1003340002F2D2431A40BB68DA6016E0BB68DB689D
:10034400FA795200012101FA02F2D2431A40BB6841
:10035400DA60BB68DB68FA7952000132012101FAE4
:1003640002F2D2431A40BB68DA60FB7B0133FB73B1
:10037400FB7B082B7FF632AF00E000BF00BF1437D1
:10038400BD465DF8047B7047F4060008003802405F
:100394000000002090B484B000AF03460A46FB710D
:1003A4001346BB71FB79082B29D8FA7916491346F1
:1003B4009B0013440B441B78FB73FA7912491346D0
:1003C4009B0013440B4402331B78002B17D0FB7B98
:1003D4000E4A52F82330BB60BB685969BB7903F0FD
:1003E4000100FA79084C13469B001344234401335B
:1003F4001B7800FA03F341EA0302BB685A6100BFA9
:100404001037BD4690BC7047F40600080000002079
:1004140080B584B000AF03460A46FB711346BB8027
:10042400FB790F2B2AD80023BB730023FB7319E03D
:10043400BB88DBB203F00103BB73FA79F97B114883
:1004440013465B0013445B0003440B441B78BA7BE4
:1004540011461846FFF79EFFBB885B08BB80FB7BF9
:100464000133FB73FA79074913465B0013445B00BD
:100474000B4405331B78FA7B9A42D9D300BF10375B
:10048400BD4680BD2407000880B584B000AF034694
:100494003960FB713B6800221A80FB79102B32D83B
:1004A4000023BB810023FB7321E0FA79F97B184810
:1004B40013465B0013445B0003440B441B7807F1B1
:1004C4000C021146184600F025F83B681B881AB246
:1004D400BB8903F00101FB7B01FA03F31BB2134355
:1004E4001BB29AB23B681A80FB7B0133FB73FA7927
:1004F400074913465B0013445B000B4405331B7828
:10050400FA7B9A42D1D300BF1037BD4680BD00BFED
:100514002407000880B485B000AF03463960FB713E
:10052400FB79082B2DD8FA79194913469B001344FB
:100534000B441B78FB73FB7B164A52F82330BB60D9
:10054400FA79134913469B0013440B4402331B7876
:10055400002B16D1FA790E4913469B0013440B4421
:1005640001331B781A46012393401A46BB681B6962
:100574001340002B14BF01230023DBB29AB23B6863
:100584001A8000BF1437BD465DF8047B704700BF76
:10059400F40600080000002080B582B000AF0023FC
:1005A400FB80FFF715FEBB1D19460120FFF76CFF0A
:1005B400FB88DBB29BB219460020FFF729FFFEE758
:1005C40080B400AFFEE780B400AFFEE780B400AFB4
:1005D400FEE780B400AFFEE780B400AFFEE780B46E
:1005E40000AF00BFBD465DF8047B704780B400AF28
:1005F40000BFBD465DF8047B704780B400AF00BF08
:10060400BD465DF8047B704780B400AF00BFBD46B3
:100614005DF8047B7047000080B400AF064BD3F84C
:100624008830054A43F47003C2F8883000BFBD46E1
:100634005DF8047B704700BF00ED00E0DFF834D0C4
:100644000D480E490E4A002302E0D458C450043326
:10065400C4188C42F9D30B4A0B4C002301E01360FD
:100664000432A242FBD3FFF7D7FF00F011F8FFF7E3
:1006740093FF7047000001200000002010000020BC
:100684008C070008100000202C000020FEE700006A
:1006940070B50D4D0D4C641BA4100026A64209D163
:1006A4000B4D0C4C00F018F8641BA4100026A64255
:1006B40005D170BD55F8043B98470136EEE755F86F
:1006C400043B98470136F2E78407000884070008D2
:1006D4008407000888070008F8B500BFF8BC08BC08
:1006E4009E467047F8B500BFF8BC08BC9E467047EC
:1006F40000000100000001010000000201000000F0
:1007040003010000000401000001000001000101D8
:1007140000010001020001000103000200000000CA
:10072400000102030004050607080004000000009D
:1007340000000000000000000000000000000000B5
:1007440000000000000000000000000000000000A5
:100754000000000000000000000000000000000095
:100764000000000000000000000000000000000085
:100774000000000000000000000000000000000075
:04078400B9010008AF
:0407880095010008CF
:10078C00000002400004024000080240000C02403D
:0400000508000641A8
:00000001FF
