:020000040800F2
:100000000000012021040008A9030008AF03000834
:10001000B5030008BB030008C1030008000000008E
:10002000000000000000000000000000C7030008FE
:10003000D503000800000000E3030008F1030008F6
:1000400071040008710400087104000871040008BC
:1000500071040008710400087104000871040008AC
:10006000710400087104000871040008710400089C
:10007000710400087104000871040008710400088C
:1000800071040008710400087104000800000000F9
:1000900000000000000000000000000071040008E3
:1000A000710400087104000871040008710400085C
:1000B000710400087104000871040008710400084C
:1000C000710400087104000871040008710400083C
:1000D00071040008710400087104000800000000A9
:1000E0007104000871040008710400080000000099
:1000F0000000000000000000000000007104000883
:100100000000000071040008710400087104000878
:1001100000000000000000000000000000000000DF
:1001200071040008710400087104000871040008DB
:100130007104000800000000000000000000000042
:100140000000000000000000000000007104000832
:1001500071040008710400087104000871040008AB
:100160007104000871040008000000000000000095
:10017000000000000000000000000000000000007F
:1001800000000000710400080000000000000000F2
:0401900071040008EE
:1001940010B5054C237833B9044B13B10448AFF3BD
:1001A40000800123237010BD040000200000000023
:1001B400E404000808B5034B1BB103490348AFF33B
:1001C400008008BD0000000008000020E4040008CE
:1001D40080B500AF044800F073F803461A46034B99
:1001E4001A7000BF80BD00BFF50100083400002074
:1001F40080B483B000AF0346FB71044AFB791370EB
:1002040000BF0C37BD465DF8047B70473500002005
:1002140080B400AF0A4B1B78002B06D1094B5B69F5
:10022400084A43F02003536105E0064B5B69054A25
:1002340023F02003536100BFBD465DF8047B704783
:10024400350000200000024080B500AF084B1B6958
:1002540003F00103002B14BF01230023DBB21A4671
:10026400044B1A7000F008F8024B1B78184680BD46
:10027400000002403600002080B582B000AF0023A9
:10028400FB7110E0FB790C4A52F82330002B07D0A5
:10029400FB79094A52F82330084A127810469847E5
:1002A400FB790133FB71FB79042BEBD900BF00BF51
:1002B4000837BD4680BD00BF200000203600002066
:1002C40080B485B000AF78600023FB730023BB7358
:1002D4000FE0BB7B0C4A52F82330002B06D1BB7BCA
:1002E40009497A6841F82320BB7BFB73BB7B01334C
:1002F400BB73BB7B042BECD9FB7B18461437BD4680
:100304005DF8047B704700BF2000002080B582B0F8
:1003140000AF224B1B6B214A43F001031363204BB4
:100324001B681F4A43F4806313601D4B1B681C4AFF
:1003340023F4006313601A4B1B68194A23F001036A
:100344001360174B1B68164A23F002031360144B07
:10035400DB68134A43F00403D360114BDB68104A93
:1003640023F00203D360FFF733FFFFF76DFF4FF471
:100374007A737B6002E07B68013B7B607B68002BC7
:10038400F9D1FFF745FF4FF47A733B6002E03B6815
:10039400013B3B603B68002BF9D1E6E700380240A3
:1003A4000000024080B400AFFEE780B400AFFEE777
:1003B40080B400AFFEE780B400AFFEE780B400AFC6
:1003C400FEE780B400AF00BFBD465DF8047B704714
:1003D40080B400AF00BFBD465DF8047B704780B4B5
:1003E40000AF00BFBD465DF8047B704780B500AF29
:1003F40000F03EF800BF80BD80B400AF064BD3F8D8
:100404008830054A43F47003C2F8883000BFBD4603
:100414005DF8047B704700BF00ED00E0DFF834D0E6
:100424000D480E490E4A002302E0D458C450043348
:10043400C4188C42F9D30B4A0B4C002301E013601F
:100444000432A242FBD3FFF7D7FF00F025F8FFF7F1
:100454005DFF704700000120000000200400002020
:1004640004050008040000203C000020FEE7000012
:1004740080B400AF064B1B781A46064B1B68134426
:10048400044A136000BFBD465DF8047B704700BF9B
:10049400000000203800002070B50D4D0D4C641B89
:1004A400A4100026A64209D10B4D0C4C00F018F8FC
:1004B400641BA4100026A64205D170BD55F8043B68
:1004C40098470136EEE755F8043B98470136F2E7C2
:1004D400FC040008FC040008FC04000800050008F3
:1004E400F8B500BFF8BC08BC9E467047F8B500BF1D
:0804F400F8BC08BC9E467047ED
:0404FC00B90100083A
:040500009501000859
:0405040001000000F2
:0400000508000421CA
:00000001FF
