:020000040800F2
:100000000000012081050008F1030008F703000843
:10001000FD030008030400080904000800000000B4
:100020000000000000000000000000000F040008B5
:100030001D040008000000002B040008390400081B
:10004000D1050008D1050008D1050008D105000838
:10005000D1050008D1050008D1050008D105000828
:10006000D1050008D1050008D1050008D105000818
:10007000D1050008D1050008D1050008D105000808
:10008000D1050008D1050008D105000800000000D6
:10009000000000000000000000000000D105000882
:1000A000D1050008D1050008D1050008D1050008D8
:1000B000B9030008D1050008D1050008D1050008E2
:1000C000D1050008D1050008D1050008D1050008B8
:1000D000D1050008D1050008D10500080000000086
:1000E000D1050008D1050008D10500080000000076
:1000F000000000000000000000000000D105000822
:1001000000000000D1050008D1050008D105000855
:1001100000000000000000000000000000000000DF
:10012000D1050008D1050008D1050008D105000857
:10013000D1050008000000000000000000000000E1
:10014000000000000000000000000000D1050008D1
:10015000D1050008D1050008D1050008D105000827
:10016000D1050008D10500080000000000000000D3
:10017000000000000000000000000000000000007F
:1001800000000000D1050008000000000000000091
:04019000D10500088D
:1001940010B5054C237833B9044B13B10448AFF3BD
:1001A40000800123237010BD0C000020000000001B
:1001B4004406000808B5034B1BB103490348AFF3D9
:1001C400008008BD00000000100000204406000864
:1001D40080B483B000AF0346FB71084B1B68FA7907
:1001E400012101FA02F21146044A0B43136000BFD5
:1001F4000C37BD465DF8047B704700BF30380240C1
:1002040080B483B000AF0346FB710B46BB71134649
:100214007B71FB79404A52F823301A68BB795B0042
:10022400032101FA03F3DB431846FB793A4951F8F9
:10023400233002401A60FB79374A52F823301A6897
:100244007B791B09DBB21946BB795B0001FA03F326
:100254001846FB79304951F8233002431A607B7900
:100264001B09DBB2002B29D1FB792B4A52F823302E
:100274000C331A68BB795B00032101FA03F3DB43F7
:100284001846FB79244951F823300C3302401A6094
:10029400FB79214A52F823300C331A687B7903F036
:1002A4000F01BB795B0001FA03F31846FB791A4985
:1002B40051F823300C3302431A6026E0FB79164AC6
:1002C40052F8233004331A68BB79012101FA03F38D
:1002D400DB431846FB79104951F8233004330240BC
:1002E4001A60FB790C4A52F8233004331A687B797C
:1002F40003F00F01BB7901FA03F31846FB790649B1
:1003040051F82330043302431A6000BF0C37BD4652
:100314005DF8047B704700BF0000002080B483B008
:1003240000AF0346FB710B46BB7113467B717B79AF
:10033400002B01D001237B71FB79154A52F823303D
:1003440014331A68BB79012101FA03F3DB4318461D
:10035400FB790F4951F82330143302401A60FB79BA
:100364000B4A52F8233014331A687979BB7901FAAD
:1003740003F31846FB79064951F82330143302433A
:100384001A6000BF0C37BD465DF8047B704700BFA0
:100394000000002080B500AF0020FFF719FF1022F5
:1003A40000210020FFF72CFF00F05CF800F08EF82D
:1003B400FEE7000080B500AF00F078F80A4B1B6838
:1003C40003F00103002B0CBF01230023DBB21A4608
:1003D400054B1A60044B1B68DBB21A46002100204F
:1003E400FFF79CFF00BF80BD2800002080B400AF51
:1003F400FEE780B400AFFEE780B400AFFEE780B450
:1004040000AFFEE780B400AFFEE780B400AF00BFEA
:10041400BD465DF8047B704780B400AF00BFBD46A5
:100424005DF8047B704780B400AF00BFBD465DF843
:10043400047B704780B500AF00F0CAF800BF80BDF0
:1004440080B400AF064BD3F88830054A43F47003F8
:10045400C2F8883000BFBD465DF8047B704700BF1A
:1004640000ED00E080B500AF0C4B1B680B4A43F075
:100474000103136000211C2000F038F8084B7A2295
:100484001A60084B4FF6F0721A60074B00221A608C
:100494004FF0804301221A6000BF80BD4038024003
:1004A400280000402C0000401000004080B400AF41
:1004B400054B1B68044A23F00103136000BFBD46CB
:1004C4005DF8047B704700BF1000004080B400AFAB
:1004D400054B1B68044A43F00103136000BFBD468B
:1004E4005DF8047B704700BF0C00004080B483B00B
:1004F40000AF03460A46FB711346BB71BB79022B5E
:1005040022D0022B2EDC002B02D0012B0ED029E0AE
:10051400174B1B68F979BA7952018A1A012101FA39
:1005240002F21146124A0B4313601BE0114B1B6885
:10053400F979BA7952018A1A012101FA02F21146B3
:100544000C4A0B4313600DE00B4B1B68F979BA7925
:1005540052018A1A012101FA02F21146064A0B439A
:10056400136000BF00BF0C37BD465DF8047B7047C5
:1005740000E100E004E100E008E100E0DFF834D04D
:100584000D480E490E4A002302E0D458C4500433E7
:10059400C4188C42F9D30B4A0B4C002301E01360BE
:1005A4000432A242FBD3FFF74BFF00F025F8FFF71C
:1005B400F1FE704700000120000000200C00002024
:1005C400640600080C00002030000020FEE7000054
:1005D40080B400AF064B1B781A46064B1B681344C5
:1005E400044A136000BFBD465DF8047B704700BF3A
:1005F400080000202C00002070B50D4D0D4C641B2C
:10060400A4100026A64209D10B4D0C4C00F018F89A
:10061400641BA4100026A64205D170BD55F8043B06
:1006240098470136EEE755F8043B98470136F2E760
:100634005C0600085C0600085C060008600600080A
:10064400F8B500BFF8BC08BC9E467047F8B500BFBB
:08065400F8BC08BC9E4670478B
:04065C00B9010008D8
:0406600095010008F8
:0C06640000000240000402400100000001
:040000050800058169
:00000001FF
