:020000040800F2
:10000000000001207D1B0008CD1B0008CD1B00084F
:10001000CD1B0008CD1B0008CD1B00080000000010
:10002000000000000000000000000000CD1B0008E0
:10003000CD1B000800000000CD1B0008CD1B0008F0
:10004000CD1B0008CD1B0008CD1B0008CD1B0008F0
:10005000CD1B0008CD1B0008CD1B0008CD1B0008E0
:10006000CD1B0008CD1B0008CD1B0008CD1B0008D0
:10007000CD1B0008CD1B0008CD1B0008CD1B0008C0
:10008000CD1B0008CD1B0008CD1B000800000000A0
:10009000000000000000000000000000CD1B000870
:1000A000CD1B0008CD1B0008CD1B0008CD1B000890
:1000B000711A0008CD1B0008CD1B0008CD1B0008DD
:1000C000CD1B0008CD1B0008CD1B0008CD1B000870
:1000D000CD1B0008CD1B0008CD1B00080000000050
:1000E000CD1B0008CD1B0008CD1B00080000000040
:1000F000000000000000000000000000CD1B000810
:1001000000000000CD1B0008CD1B0008CD1B00081F
:1001100000000000000000000000000000000000DF
:10012000CD1B0008CD1B0008CD1B0008CD1B00080F
:10013000CD1B0008000000000000000000000000CF
:10014000000000000000000000000000CD1B0008BF
:10015000CD1B0008CD1B0008CD1B0008CD1B0008DF
:10016000CD1B0008CD1B00080000000000000000AF
:10017000000000000000000000000000000000007F
:1001800000000000CD1B000800000000000000007F
:04019000CD1B00087B
:1001A00010B5054C237833B9044B13B10448AFF3B1
:1001B00000800123237010BD840000200000000097
:1001C0008C24000808B5034B1BB103490348AFF367
:1001D000008008BD00000000880000208C2400087A
:1001E00001F0FF01102A2BDB10F0070F08D010F8E8
:1001F000013B013A8B422DD010F0070F42B3F6D1EC
:10020000F0B441EA012141EA014122F007047FF004
:1002100000070023F0E80256083C85EA010586EA5B
:10022000010685FA47F5A3FA87F586FA47F6A5FA97
:1002300087F68EB9EED1F0BC01F0FF0102F00702A3
:1002400032B110F8013B013A83EA010313B1F8D14E
:100250000020704701387047002D06BF354603382F
:10026000073815F0010F07D1013015F4807F02BF68
:10027000013015F4C03F0130F0BC0138704700BFB9
:100280004FF0FF0C1CEAD0521EBF1CEAD15392EA79
:100290000C0F93EA0C0F6FD01A4480EA010C400255
:1002A00018BF5FEA41211ED04FF0006343EA5010AF
:1002B00043EA5111A0FB01310CF00040B1F5000FF1
:1002C0003EBF490041EAD3715B0040EA010062F1A0
:1002D0007F02FD2A1DD8B3F1004F40EBC25008BF8A
:1002E00020F00100704790F0000F0CF0004C08BFA8
:1002F00049024CEA502040EA51207F3AC2BFD2F175
:10030000FF0340EAC250704740F400004FF0000382
:10031000013A5DDC12F1190FDCBF00F000407047BC
:10032000C2F10002410021FA02F1C2F1200200FAFA
:1003300002FC5FEA310040F1000053EA4C0308BFC1
:1003400020EADC70704792F0000F00F0004C02BF12
:10035000400010F4000F013AF9D040EA0C0093F08D
:10036000000F01F0004C02BF490011F4000F013BE7
:10037000F9D041EA0C018FE70CEAD15392EA0C0F55
:1003800018BF93EA0C0F0AD030F0004C18BF31F0C0
:10039000004CD8D180EA010000F00040704790F096
:1003A000000F17BF90F0004F084691F0000F91F03A
:1003B000004F14D092EA0C0F01D142020FD193EA00
:1003C0000C0F03D14B0218BF084608D180EA010088
:1003D00000F0004040F0FE4040F40000704740F064
:1003E000FE4040F44000704781F0004102E000BF51
:1003F00083F0004330B54FEA41044FEA430594EAE5
:10040000050F08BF90EA020F1FBF54EA000C55EA1F
:10041000020C7FEA645C7FEA655C00F0E2804FEAF0
:100420005454D4EB5555B8BF6D420CDD2C4480EAD2
:10043000020281EA030382EA000083EA010180EA02
:10044000020281EA0303362D88BF30BD11F0004F50
:100450004FEA01314FF4801C4CEA113102D0404286
:1004600061EB410113F0004F4FEA03334CEA1333C1
:1004700002D0524263EB430394EA050F00F0A780D9
:10048000A4F10104D5F1200E0DDB02FA0EFC22FAD4
:1004900005F2801841F1000103FA0EF2801843FAC8
:1004A00005F359410EE0A5F120050EF1200E012AB9
:1004B00003FA0EFC28BF4CF0020C43FA05F3C018F7
:1004C00051EBE37101F0004507D54FF0000EDCF170
:1004D000000C7EEB00006EEB0101B1F5801F1BD319
:1004E000B1F5001F0CD349085FEA30004FEA3C0C1D
:1004F00004F101044FEA445212F5800F80F09A8013
:10050000BCF1004F08BF5FEA500C50F1000041EB16
:10051000045141EA050130BD5FEA4C0C404141EB1A
:100520000101013C28BFB1F5801FE9D291F0000F15
:1005300004BF01460020B1FA81F308BF2033A3F1C4
:100540000B03B3F120020CDA0C3208DD02F1140CBB
:10055000C2F10C0201FA0CF021FA02F10CE002F1F6
:100560001402D8BFC2F1200C01FA02F120FA0CFCEF
:10057000DCBF41EA0C019040E41AA2BF01EB045138
:10058000294330BD6FEA04041F3C1CDA0C340EDC36
:1005900004F11404C4F1200220FA04F001FA02F379
:1005A00040EA030021FA04F345EA030130BDC4F137
:1005B0000C04C4F1200220FA02F001FA04F340EA2C
:1005C0000300294630BD21FA04F0294630BD94F0DD
:1005D000000F83F4801306BF81F480110134013DC4
:1005E0004EE77FEA645C18BF7FEA655C29D094EA35
:1005F000050F08BF90EA020F05D054EA000C04BFB3
:100600001946104630BD91EA030F1EBF002100209D
:1006100030BD5FEA545C05D14000494128BF41F03C
:10062000004130BD14F580043CBF01F5801130BDA0
:1006300001F0004545F0FE4141F470014FF000002B
:1006400030BD7FEA645C1ABF194610467FEA655CDC
:100650001CBF0B46024650EA013406BF52EA03357E
:1006600091EA030F41F4002130BD00BF90F0000F6C
:1006700004BF0021704730B54FF4806404F13204A8
:100680004FF000054FF0000150E700BF90F0000F61
:1006900004BF0021704730B54FF4806404F1320488
:1006A00010F0004548BF40424FF000013EE700BF58
:1006B00042004FEAE2014FEA31014FEA02701FBFE8
:1006C00012F07F4393F07F4F81F06051704732F01A
:1006D0007F4208BF704793F07F4F04BF41F4002171
:1006E000704730B54FF4607401F0004521F00041CF
:1006F0001CE700BF50EA010208BF704730B54FF059
:1007000000050AE050EA010208BF704730B511F059
:10071000004502D5404261EB41014FF4806404F191
:1007200032045FEA915C3FF4D8AE4FF003025FEA17
:10073000DC0C18BF03325FEADC0C18BF033202EB9B
:10074000DC02C2F1200300FA03FC20FA02F001FAF5
:1007500003FE40EA0E0021FA02F11444BDE600BF98
:1007600070B54FF0FF0C4CF4E06C1CEA11541DBF47
:100770001CEA135594EA0C0F95EA0C0F00F0DEF812
:100780002C4481EA030621EA4C5123EA4C5350EAF7
:10079000013518BF52EA033541F4801143F4801348
:1007A00038D0A0FB02CE4FF00005E1FB02E506F0D9
:1007B0000042E0FB03E54FF00006E1FB03569CF02E
:1007C000000F18BF4EF0010EA4F1FF04B6F5007F34
:1007D00064F5407404D25FEA4E0E6D4146EB0606A6
:1007E00042EAC62141EA55514FEAC52040EA5E502F
:1007F0004FEACE2EB4F1FD0C88BFBCF5E06F1ED8D9
:10080000BEF1004F08BF5FEA500E50F1000041EB0F
:10081000045170BD06F0004646EA010140EA0200BC
:1008200081EA0301B4EB5C04C2BFD4EB0C0541EADE
:10083000045170BD41F480114FF0000E013C00F3F3
:10084000AB8014F1360FDEBF002001F0004170BD17
:10085000C4F10004203C35DA0C341BDC04F1140430
:10086000C4F1200500FA05F320FA04F001FA05F2BC
:1008700040EA020001F0004221F0004110EBD37089
:1008800021FA04F642EB06015EEA430E08BF20EAB5
:10089000D37070BDC4F10C04C4F1200500FA04F358
:1008A00020FA05F001FA04F240EA020001F00041EA
:1008B00010EBD37041F100015EEA430E08BF20EA5D
:1008C000D37070BDC4F1200500FA05F24EEA020EA5
:1008D00020FA04F301FA05F243EA020321FA04F0D4
:1008E00001F0004121FA04F220EA020000EBD3708B
:1008F0005EEA430E08BF20EAD37070BD94F0000F8B
:100900000FD101F00046400041EB010111F4801FBE
:1009100008BF013CF7D041EA060195F0000F18BF6F
:10092000704703F00046520043EB030313F4801FAB
:1009300008BF013DF7D043EA0603704794EA0C0F65
:100940000CEA135518BF95EA0C0F0CD050EA41067B
:1009500018BF52EA4306D1D181EA030101F00041F8
:100960004FF0000070BD50EA410606BF1046194620
:1009700052EA430619D094EA0C0F02D150EA01362C
:1009800013D195EA0C0F05D152EA03361CBF10466D
:1009900019460AD181EA030101F0004141F0FE410C
:1009A00041F470014FF0000070BD41F0FE4141F490
:1009B000780170BD70B54FF0FF0C4CF4E06C1CEA90
:1009C00011541DBF1CEA135594EA0C0F95EA0C0F45
:1009D00000F0A7F8A4EB050481EA030E52EA033500
:1009E0004FEA013100F088804FEA03334FF0805521
:1009F00045EA131343EA12634FEA022245EA11154E
:100A000045EA10654FEA00260EF000419D4208BFFE
:100A1000964244F1FD0404F5407402D25B084FEAAB
:100A20003202B61A65EB03055B084FEA32024FF457
:100A300080104FF4002CB6EB020E75EB030E22BFB4
:100A4000B61A754640EA0C005B084FEA3202B6EB74
:100A5000020E75EB030E22BFB61A754640EA5C0023
:100A60005B084FEA3202B6EB020E75EB030E22BFB3
:100A7000B61A754640EA9C005B084FEA3202B6EBB4
:100A8000020E75EB030E22BFB61A754640EADC0073
:100A900055EA060E18D04FEA051545EA16754FEAD5
:100AA00006164FEAC30343EA52734FEAC2025FEAF3
:100AB0001C1CC0D111F4801F0BD141EA00014FF082
:100AC00000004FF0004CB6E711F4801F04BF014353
:100AD0000020B4F1FD0C88BFBCF5E06F3FF6AFAE6F
:100AE000B5EB030C04BFB6EB020C5FEA500C50F1FF
:100AF000000041EB045170BD0EF0004E4EEA113182
:100B000014EB5C04C2BFD4EB0C0541EA045170BD88
:100B100041F480114FF0000E013C90E645EA060ECC
:100B20008DE60CEA135594EA0C0F08BF95EA0C0FFA
:100B30003FF43BAF94EA0C0F0AD150EA01347FF442
:100B400034AF95EA0C0F7FF425AF104619462CE719
:100B500095EA0C0F06D152EA03353FF4FDAE10467C
:100B6000194622E750EA410618BF52EA43067FF4CD
:100B7000C5AE50EA41047FF40DAF52EA43057FF45D
:100B8000EBAE12E74FEA4102B2F1E04324BFB3F506
:100B9000001CDCF1FE5C0DD901F0004C4FEAC002F4
:100BA0004CEA5070B2F1004F40EB830008BF20F0D8
:100BB0000100704711F0804F21D113F13872BCBF92
:100BC00001F00040704741F480114FEA5252C2F1E7
:100BD0001802C2F1200C10FA0CF320FA02F018BF30
:100BE00040F001004FEAC1234FEAD32303FA0CFC83
:100BF00040EA0C0023FA02F34FEA4303CCE77FEA12
:100C0000625307D150EA01331EBF4FF0FE4040F45B
:100C10004000704701F0004040F0FE4040F400000A
:100C2000704700BF80F0004002E000BF81F000414B
:100C300042001FBF5FEA410392EA030F7FEA226C82
:100C40007FEA236C6AD04FEA1262D2EB1363C1BF12
:100C5000D218414048404140B8BF5B42192B88BF81
:100C6000704710F0004F40F4000020F07F4018BFA4
:100C7000404211F0004F41F4000121F07F4118BFC4
:100C8000494292EA030F3FD0A2F1010241FA03FC6C
:100C900010EB0C00C3F1200301FA03F100F0004354
:100CA00002D5494260EB4000B0F5000F13D3B0F11C
:100CB000807F06D340084FEA310102F10102FE2A8B
:100CC00051D2B1F1004F40EBC25008BF20F00100FB
:100CD00040EA03007047490040EB0000013A28BF9A
:100CE000B0F5000FEDD2B0FA80FCACF1080CB2EB1D
:100CF0000C0200FA0CF0AABF00EBC250524218439B
:100D0000BCBFD0401843704792F0000F81F400013F
:100D100006BF80F400000132013BB5E74FEA410312
:100D20007FEA226C18BF7FEA236C21D092EA030F7E
:100D300004D092F0000F08BF0846704790EA010FF8
:100D40001CBF0020704712F07F4F04D1400028BF25
:100D500040F00040704712F100723CBF00F5000007
:100D6000704700F0004343F0FE4040F4000070473D
:100D70007FEA226216BF08467FEA236301464202E9
:100D800006BF5FEA412390EA010F40F480007047FC
:100D90004FF0000304E000BF10F0004348BF4042A2
:100DA0005FEA000C08BF704743F0964301464FF0DE
:100DB00000001CE050EA010208BF70474FF000033A
:100DC0000AE000BF50EA010208BF704711F000437B
:100DD00002D5404261EB41015FEA010C02BF84464B
:100DE0000146002043F0B64308BFA3F18053A3F5AA
:100DF0000003BCFA8CF2083AA3EBC25310DB01FAF1
:100E000002FC634400FA02FCC2F12002BCF1004F74
:100E100020FA02F243EB020008BF20F00100704705
:100E200002F1200201FA02FCC2F1200250EA4C0059
:100E300021FA02F243EB020008BF20EADC7070479F
:100E40004FF0FF3C06E000BF4FF0010C02E000BF96
:100E50004FF0010C4DF804CD4FEA40024FEA410338
:100E60007FEA226C18BF7FEA236C11D001B052EAEE
:100E7000530C18BF90EA010F58BFB2EB030088BFB4
:100E8000C81738BF6FEAE17018BF40F00100704723
:100E90007FEA226C02D15FEA402C05D17FEA236C05
:100EA000E4D15FEA412CE1D05DF8040B704700BF4C
:100EB000844608466146FFE70FB5FFF7C9FF0028E3
:100EC00048BF10F1000F0FBD4DF808EDFFF7F4FF1C
:100ED0000CBF012000205DF808FB00BF4DF808EDB5
:100EE000FFF7EAFF34BF012000205DF808FB00BFD8
:100EF0004DF808EDFFF7E0FF94BF012000205DF8FA
:100F000008FB00BF4DF808EDFFF7D2FF94BF0120AA
:100F100000205DF808FB00BF4DF808EDFFF7C8FFA3
:100F200034BF012000205DF808FB00BF42000ED254
:100F3000B2F1FE4F0BD34FF09E03B3EB126209D414
:100F40004FEA002343F0004323FA02F070474FF0CA
:100F50000000704712F1610F01D1420202D14FF03F
:100F6000FF3070474FF00000704700BF80B400AF03
:100F70000A4B4FF000021A60094B0A4A1A600A4BEA
:100F8000084A1A60084B074A5A60084B4FF00002A3
:100F90001A6000BFBD4680BC704700BFBC00002087
:100FA000A40000200000F041C0000020C800002084
:100FB0002DE9B04300AF414B1846FFF779FB0446DB
:100FC0000D463F4B1B681846FFF772FB02460B4667
:100FD00020462946FFF7C4FB02460B469046994639
:100FE0004FF000031846FFF763FB04460D46344BF1
:100FF0001B68334A526811461846FFF717FE03462E
:101000001846FFF755FB02460B4620462946FFF7D8
:10101000A7FB02460B4640464946FFF7EBF902465E
:101020000B4690469946274B1846FFF741FB04466E
:101030000D46234B1B68224A526811461846FFF79B
:10104000F7FD03461846FFF733FB02460B462046E2
:101050002946FFF785FB02460B4640464946FFF707
:10106000C9F902460B4610461946FFF78BFD0346A9
:10107000154A1360144B1B684FF000011846FFF728
:101080002DFF0346002B03D00F4B4FF000021A60D8
:101090000E4B1B680C4A126811461846FFF71EFFDC
:1010A0000346002B02D0094B1B6801E0064B1B686E
:1010B000054A136000BFBDE8B08300BFCDCCCC3D76
:1010C000C00000200AD7233CC8000020A000002058
:1010D000B0B500AF144B1B681846FFF7E9FA02469B
:1010E0000B460FA1D1E90001FFF764FC02460B4655
:1010F00014461D460D4B1B681846FFF7D9FA0246E9
:101100000B4620462946FFF72BFB02460B461046AE
:101110001946FFF737FD03461846B0BDAFF3008010
:101120005C8FC2F5285CE73FA0000020C8000020CB
:1011300080B582B000AF0346FB71FB791846FFF71C
:1011400027FE0346024A136000BF0837BD4680BD34
:10115000A400002090B583B000AF274A274B1B683E
:1011600019461046FFF78CF803461C46244B1946D7
:101170001846FFF75DFD03461A46204B1B681946CB
:101180001046FFF77DF8034619462046FFF750FD4D
:1011900003461A461B4B1A60184B1B681A4A126802
:1011A00011461846FFF742FD03461A46174B1A60D0
:1011B000174800F01BFC154B1B681846FFF7B6FEDE
:1011C00003469BB2184600F0C3FC0346184600F0E5
:1011D0000DFC104800F00AFCFFF7EAFEFFF778FF6D
:1011E0007860786800F0F6F9084B1B68074A53608E
:1011F00000BF0C37BD4690BDCDCCCC3DA400002037
:101200000AD7233CA0000020BC000020C000002022
:10121000A4240008B024000880B485B000AF0023E7
:10122000FB7314E1FA7B8F4913465B0013445B00A8
:101230000B441B78BB73BB7B032B00F204818A4BEE
:101240001B6BBA7B012101FA02F21146864A0B435D
:101250001363BB7B854A52F82330BB60FA7B81491C
:1012600013465B0013445B000B4401331B78FB7196
:10127000FA7B7C4913465B0013445B000B4402334A
:101280001B78022B00F09980022B00F3DD80002BED
:1012900002D0012B67D0D7E0BB681B68FA795200F7
:1012A000012101FA02F2D2431A40BB681A60FA7BAC
:1012B0006C4913465B0013445B000B4403331B78FB
:1012C000012B16D1BB68DB68FA795200012101FAC3
:1012D00002F21A43BB68DA60BB68DB68FA79520035
:1012E0000132012101FA02F2D2431A40BB68DA60EE
:1012F000AAE0FA7B5B4913465B0013445B000B4496
:1013000003331B78022B16D1BB68DB68FA795200D5
:101310000132012101FA02F21A43BB68DA60BB68AC
:10132000DB68FA795200012101FA02F2D2431A4035
:10133000BB68DA6088E0BB68DB68FA79520001219B
:1013400001FA02F2D2431A40BB68DA60BB68DB687C
:10135000FA7952000132012101FA02F2D2431A4015
:10136000BB68DA6070E0BB681B68FA795200012143
:1013700001FA02F21A43BB681A60FA7B3949134634
:101380005B0013445B000B4404331B78012B09D131
:10139000BB685B68FA79012101FA02F21A43BB6863
:1013A0005A6051E0BB685B68FA79012101FA02F2E8
:1013B000D2431A40BB685A6046E0BB681B68FA79A2
:1013C0005200022101FA02F21A43BB681A60FA7B4A
:1013D000244913465B0013445B000B4404331B7821
:1013E000012B09D1BB685B68FA79012101FA02F28D
:1013F0001A43BB685A6009E0BB685B68FA7901214F
:1014000001FA02F2D2431A40BB685A60FB79DB084A
:10141000BB71BA79BB68083253F82210FA7B1148C5
:1014200013465B0013445B00034405331B781A46E4
:10143000FB799B0002FA03F3BA791943BB680832BF
:1014400043F8221000E000BFFB7B0133FB73FB7B02
:10145000052B7FF6E7AE00BF00BF1437BD4680BC4A
:10146000704700BFCC240008003802400000002074
:1014700080B485B000AF03460A46FB711346BB71CA
:10148000FB79052B46D8FA79254913465B001344AE
:101490005B000B441B78FB73FB7B224A52F8233022
:1014A000BB60FB7B1F4A52F82330BB60FA791C49B2
:1014B00013465B0013445B000B4402331B78012B83
:1014C00028D1BB79002B12D0BB685969FA7914482E
:1014D00013465B0013445B00034401331B781A4638
:1014E0000123934041EA0302BB685A6112E0BB68E2
:1014F0005969FA790A4813465B0013445B000344B8
:1015000001331B781A4601239340DB4301EA0302AF
:10151000BB685A6100BF1437BD4680BC704700BF2E
:10152000CC2400080000002080B400AF264B1B6CC8
:10153000254A43F002031364244B9B69234A43F07A
:1015400060039361214B9B69204A43F00803936138
:101550001E4B1B681D4A43F0800313601B4B5B69E5
:101560001A4A43F001035361184B1B68174A23F0D2
:1015700010031360154B1B68144A23F060031360BB
:10158000124B1B6A114A43F0010313620F4B1B6A93
:101590000E4A23F0020313620C4B43F67F629A62F9
:1015A0000A4A0B4B1B68D362084B5B68074A43F03F
:1015B00040035360054B1B68044A43F0010313606A
:1015C00000BFBD4680BC70470038024000040040A8
:1015D0001000002080B582B000AF7860174800F09E
:1015E00005FA174B1B681846FFF7D2FB03467968CC
:1015F0001846FEF745FE03461846FFF797FC0346DC
:101600009BB2184600F0A4FA0346184600F0EEF923
:101610000B4B1B681846FFF7BBFB0346796818465F
:10162000FEF72EFE03461846FFF780FC03469AB2EB
:10163000044B5A6300BF0837BD4680BDB424000880
:10164000100000200004004080B483B000AF0346C7
:10165000FB7197F90730002B0BDBFB7903F01F02BE
:10166000064997F907305B09012000FA02F241F8B8
:10167000232000BF0C37BD4680BC704700E100E06E
:1016800080B400AF0F4B1B6C0E4A43F00103136490
:101690004FF0804343F67F629A624FF080420A4BDC
:1016A0001B68D3624FF0804300225A624FF08043A0
:1016B0001B684FF0804243F00103136000BFBD463A
:1016C00080BC7047003802401400002080B500AF95
:1016D0004FF08043DB684FF0804243F00103D3605A
:1016E0001C20FFF7B1FF00BF80BD80B500AF00F048
:1016F000CFF900BF80BD000080B400AF044B5B6C2D
:10170000034A43F48053536400BFBD4680BC704716
:101710000038024080B582B000AF0346FB710B4633
:10172000BB7113467B71FFF7E7FF224B1B68214A11
:1017300043F4407313601F4B1B681E4A23F00403DD
:1017400013601C4B1B68FA7992001146194A0B432F
:101750001360184B1B68174A23F002031360154BE4
:101760001B68BA7952001146124A0B431360114BA1
:101770001B68104A23F0010313600E4B1A687B7933
:101780000C4913430B600B4B1B680A4A23F03803C8
:101790001360084B1B68074A43F018031360054B9E
:1017A0001B68044A43F04003136000BF0837BD467E
:1017B00080BD00BF0030014080B483B000AF03465D
:1017C000FB710D4B9B6803F00203002B0DD00A4AFE
:1017D000FB79D36000BF084B9B6803F08003002BAC
:1017E000F9D1054BDB68DBB200E0FF2318460C376C
:1017F000BD4680BC704700BF0030014080B400AFE0
:10180000024B1B681846BD4680BC7047A8000020EC
:1018100080B582B000AF0023FB71244B4FF0000273
:101820001A6000F051F8FB1D1946012000F073F812
:1018300000F052F8FB795BB2002B0ADA1B4B1B68F5
:101840004FF07C511846FFF7F3F903461A46174B41
:101850001A60FB7903F04003002B0AD0134B1B687E
:101860004FF07A511846FFF7E3F903461A460F4B3B
:101870001A6000F029F8FB1D1946022000F04BF811
:1018800000F02AF8FB795BB21846FFF785FA0246AA
:10189000064B1B6819461046FFF7CAF903461A465D
:1018A000024B1A6000BF0837BD4680BDA80000206B
:1018B00080B500AF00F008F80021802000F014F897
:1018C00000F00AF800BF80BD80B500AF0121022002
:1018D000FFF7CEFD00BF80BD80B500AF0021022024
:1018E000FFF7C6FD00BF80BD80B582B000AF0346E4
:1018F0000A46FB711346BB71FB7963F07F03DBB2D1
:101900001846FFF759FFBB791846FFF755FF00BF90
:101910000837BD4680BD80B582B000AF0346396050
:10192000FB71FB7903F07F03DBB21846FFF744FF3E
:101930000020FFF741FF03461A463B681A7000BFBC
:101940000837BD4680BD000080B400AF044B1B6C5F
:10195000034A43F40033136400BFBD4680BC7047A4
:101960000038024090B583B000AF044608461146E7
:101970001A462346FB710346BB710B467B71134627
:101980003B71FFF7E1FF184BDB68174A43F4005344
:10199000D360154B40F283629A60134BDB68FA798F
:1019A000012101FA02F211460F4A0B43D3600E4B9C
:1019B000DB687A79120311460B4A0B43D3600A4B5A
:1019C000DB683A79D2031146074A0B43D360064BD2
:1019D0001B69BA7912031146034A0B43136100BF16
:1019E0000C37BD4690BD00BF0044004080B483B0BA
:1019F00000AF78600DE07B681A780B4B5A607B680B
:101A000001337B60084B1B689B0903F00103002B2B
:101A1000F1D17B681B78002BF4D100BF00BF0C37DD
:101A2000BD4680BC704700BF0044004080B500AF99
:101A3000FFF7F2FB0023002200210320FFF792FFB3
:101A4000012200210120FFF765FEFFF731FFFFF7BC
:101A50008DFA0A20FFF76CFBFFF712FEFFF764FD1B
:101A6000FFF734FEC82000F059F800F04BF8FEE70D
:101A700080B500AF4FF080431B694FF0804223F0E8
:101A800001031361FFF7C4FEFFF72FFE00BF80BD07
:101A900080B500AF164B1B78012B1BD1154B1B6873
:101AA000002B17D1FFF7AAFE0346134A1360134811
:101AB000FFF79CFF104B1B681846FFF737FA0346E9
:101AC0009BB2184600F044F803461846FFF78EFF15
:101AD000FFF740FB074B1B680133094A1268B3FB51
:101AE000F2F102FB01F29B1A024A136000BF80BDB3
:101AF00018000020AC000020BC000020BC2400081E
:101B00001C00002080B400AF034B01221A7000BFFC
:101B1000BD4680BC704700BF1800002080B483B071
:101B200000AF7860054B1B687A68B2FBF3F3044A98
:101B3000136000BF0C37BD4680BC70471400002006
:101B40001C00002080B400AF00BFBD4680BC7047C1
:101B500080B584B000AF0346FB80064BFB60FB887A
:101B60001A460549F86800F057F8FB681846103720
:101B7000BD4680BDC4240008C8240008DFF834D066
:101B80000D480E490E4A002302E0D458C4500433D5
:101B9000C4188C42F9D30B4A0B4C002301E01360AC
:101BA0000432A242FBD3FFF7CDFF00F011F8FFF79C
:101BB0003DFF70470000012000000020840000204D
:101BC0002C25000884000020DC000020FEE7000037
:101BD00070B50D4D0D4C641BA4100026A64209D112
:101BE0000B4D0C4C00F052FC641BA4100026A642C6
:101BF00005D170BD55F8043B98470136EEE755F81E
:101C0000043B98470136F2E7242500082425000804
:101C100024250008282500080EB400B59CB01DAB93
:101C2000029006906FF0004109480791049109491C
:101C300053F8042B05910068019302A900F068F89D
:101C4000029B00221A701CB05DF804EB03B07047D1
:101C5000200000200802FFFF2DE9F0478E689E4219
:101C600082460C4690461F4638D88A8912F4906FF7
:101C700032D025680969A5EB0109656905EB4505C1
:101C800005EBD57501334B446D109D4238BF1D46A1
:101C9000530531D5294600F045FB064650B90C23C3
:101CA000CAF80030A38943F04003A3814FF0FF300E
:101CB000BDE8F08721694A4600F0BEFAA38923F403
:101CC000906343F08003A381266165614E44A5EBD8
:101CD00009052660A5603E46BE4200D93E46324612
:101CE0002068414600F0B6FAA36822689B1B324484
:101CF000A36022600020DBE72A4600F06DFB064669
:101D00000028E1D12169504600F0BEFAC7E7000083
:101D10002DE9F04F98468B891B069DB007460D466E
:101D200014460ED50B6963B9402100F0FBFA286018
:101D3000286120B90C233B604FF0FF30D1E04023F5
:101D40006B610023099320238DF82930CDF80C8096
:101D50003023DFF8A8818DF82A304FF0010923469F
:101D60009A4613F8012B0AB1252AF9D1BAEB040BD4
:101D70000BD05B46224629463846FFF76DFF0130FF
:101D800000F0AA80099A5A4409929AF80030002B70
:101D900000F0A28000234FF0FF32CDE905230AF1C5
:101DA000010A049307938DF853301A935446052281
:101DB00014F8011B5148FEF713FA049AD8B9D0065B
:101DC00044BF20238DF85330110744BF2B238DF8D7
:101DD00053309AF800302A2B15D0079A5446002029
:101DE0004FF00A0C214611F8013B303B092B4ED92C
:101DF000B0B1079214E0A0EB080309FA03F3134310
:101E00000493A246D2E7039B191D1B680391002B84
:101E1000BBBF5B4242F0020207930793B8BF049234
:101E200023782E2B0CD163782A2B35D1039B1A1DD6
:101E30001B680392002BB8BF4FF0FF3302340593A9
:101E4000DFF8C8A0217803225046FEF7C9F940B157
:101E50004023A0EB0A0003FA00F0049B0343013483
:101E6000049314F8011B26488DF828100622FEF76B
:101E7000B7F9002838D0234B1BBB039B073323F053
:101E8000070308330393099B3344099367E70CFB6B
:101E900002320C460120A5E70023013405931946C0
:101EA0004FF00A0C204610F8012B303A092A03D9CA
:101EB000002BC5D00591C3E70CFB0121044601238B
:101EC000F0E703AB00932A460F4B04A93846AFF363
:101ED0000080421C0646D6D1AB895B063FF52CAF8D
:101EE00009981DB0BDE8F08F03AB00932A46064B5E
:101EF00004A9384600F07AF8EBE700BFF0240008A8
:101F0000FA24000800000000591C0008F62400080C
:101F10002DE9F047164699468A680B69DDF820805E
:101F20009342B8BF1346336091F8432007460C46EE
:101F30000AB1013333602368990642BF3368023324
:101F40003360256815F0060506D104F1190AE36827
:101F500032689B1AAB4226DC94F84320131E226899
:101F600018BF012392062BD404F143024946384698
:101F7000C04701301ED02368E568326803F00603CD
:101F8000042B08BFAD1AA36822690CBF25EAE575CA
:101F900000259342C4BF9B1AED1800261A34B5429F
:101FA0001AD1002008E00123524649463846C0476E
:101FB000013003D14FF0FF30BDE8F0870135C6E7AF
:101FC000E1185A1C302081F84300224494F845104F
:101FD00082F843100233C7E70123224649463846B8
:101FE000C0470130E6D00136D9E700002DE9FF47B0
:101FF0000C469146277E0C99782F80469A4604F12C
:10200000430207D8622F0AD8002F00F0D880582F3B
:1020100000F0A38004F1420684F842703AE0A7F190
:102020006303152BF6D801A050F823F08520000893
:102030009920000815200008152000081520000828
:102040001520000899200008152000081520000818
:102050001520000815200008A5210008C920000847
:10206000872100081520000815200008C721000856
:1020700015200008C92000081520000815200008B8
:102080008F2100080B681A1D1B680A6004F14206C4
:1020900084F842300123A3E0256808682E0600F189
:1020A00004030AD505680B60002D03DA2D236D4269
:1020B00084F843305E480A2319E015F0400F0568A4
:1020C0000B6018BF2DB2EFE70B682568181D08607C
:1020D000280601D51D6802E06906FBD51D88544815
:1020E0006F2F0CBF08230A23002184F84310666871
:1020F000A660002EA2BF216821F0040121600DB965
:10210000002E4DD01646B5FBF3F103FB1157C75D0A
:1021100006F8017D2F46BB420D46F4D9082B0BD1A2
:102120002368DF0708D5236961689942DEBF302341
:1021300006F8013C06F1FF36921B2261CDF800A0A3
:102140004B4603AA21464046FFF7E2FE01304CD140
:102150004FF0FF3004B0BDE8F087354884F8457093
:1021600023680E681F0656F8045B0E6014D5D90765
:1021700044BF43F0200323601DB9236823F02003EC
:1021800023601023B0E7236843F020032360782303
:10219000284884F84530E3E75E0648BFADB2E6E77D
:1021A0001646BBE70B68266860691D1D0D60350685
:1021B0001B6801D5186002E07106FBD5188000236A
:1021C00023611646BAE70B681A1D0A601E6862682A
:1021D00000213046FEF704F808B1801B6060636898
:1021E0002361002384F84330A8E723693246494637
:1021F0004046D0470130ABD023689B0713D4E0683A
:10220000039B9842B8BF1846A4E7012332464946CB
:102210004046D04701309BD00135E36803995B1AF3
:10222000AB42F2DCEBE7002504F11906F5E700BF4D
:1022300001250008122500080A44914200F1FF33ED
:1022400000D1704710B511F8014B03F8014F9142CE
:10225000F9D110BD884210B501EB020402D98442C5
:10226000234607D8431EA14208D011F8012B03F8DA
:10227000012FF8E7024401468A4200D110BD13F84D
:10228000014D02F8014DF7E738B50546002945D064
:1022900051F8043C0C1F002BB8BFE41800F0D2F832
:1022A0001F4A1368104633B9636014602846BDE8BE
:1022B000384000F0CDB8A3420BD921686218934290
:1022C00004BF1A685B68636004BF52182260046030
:1022D000ECE71A465B680BB1A342FAD911685018B3
:1022E000A0420BD120680144501883421160DDD117
:1022F00018685B68536001441160D7E702D90C236A
:102300002B60D3E7206821188B4204BF19685B68F3
:10231000636004BF091821605460C7E738BD00BF7F
:10232000B0000020F8B5CD1C25F0030508350C2DB4
:1023300038BF0C25002D064601DBA94203D90C232A
:1023400033600020F8BD00F07DF821490A6814468A
:102350009CB9204F3B6823B92146304600F062F813
:1023600038602946304600F05DF8431C23D10C2329
:102370003360304600F06CF8E3E723685B1B17D44A
:102380000B2B03D923601C44256004E06368A24240
:102390000CBF0B605360304600F05AF804F10B009C
:1023A000231D20F00700C21ACCD01B1AA350C9E786
:1023B00022466468CCE7C41C24F00304A042E3D0A6
:1023C000211A304600F02EF80130DDD1CFE700BFF2
:1023D000B0000020B4000020F8B5074614460E46B1
:1023E00021B9BDE8F8401146FFF79CBF22B9FFF7BD
:1023F0004BFF25462846F8BD00F030F8A0420FD22A
:1024000021463846FFF78EFF05460028F2D03146B8
:102410002246FFF711FF31463846FFF735FFE9E75F
:102420003546E7E738B5064D0023044608462B60DD
:1024300000F01EF8431C02D12B6803B1236038BDA5
:10244000CC000020014800F011B800BFD4000020EB
:10245000014800F00CB800BFD400002051F8043C43
:10246000181F002BBCBF0B58C0187047704770472F
:10247000044B1968024609B90349196018680244F7
:102480001A607047B8000020E0000020F8B500BFD7
:10249000F8BC08BC9E467047F8B500BFF8BC08BC45
:0424A0009E4670479D
:1024A4004572726F725B305D3A2000000D000000CF
:1024B40044433A200000000054454D503A200000A7
:1024C4000000000025640D00000202000007000562
:1024D40002000005010001000000000602000005E2
:1024E400000702000005010402000002232D302B26
:1024F4002000686C4C006566674546470030313201
:102504003334353637383941424344454600303157
:1025140032333435363738396162636465660000B6
:04252400C5010008E5
:04252800A101000805
:10252C00000002400004024000080240000C02407F
:10253C0064000000640000000100000001000000C5
:10254C00240000200000000000000000000000003B
:10255C00000000000000000000000000000000006F
:10256C00000000000000000000000000000000005F
:10257C00000000000000000000000000000000004F
:10258C00000000000000000000000000000000003F
:10259C00000000000000000000000000000000002F
:0425AC00000000002B
:0400000508001B7D57
:00000001FF
