:020000040800F2
:1000000000000120BD040008450400084B0400085E
:1000100051040008570400085D04000800000000B7
:100020000000000000000000000000006304000861
:1000300071040008000000007F0400088D0400081F
:100040000D0500080D0500080D0500080D05000848
:100050000D0500080D0500080D0500080D05000838
:100060000D0500080D0500080D0500080D05000828
:100070000D0500080D0500080D0500080D05000818
:100080000D0500080D0500080D0500080000000022
:100090000000000000000000000000000D05000846
:1000A0000D0500080D0500080D0500080D050008E8
:1000B0006D0300080D0500080D0500080D0500087A
:1000C0000D0500080D0500080D0500080D050008C8
:1000D0000D0500080D0500080D05000800000000D2
:1000E0000D0500080D0500080D05000800000000C2
:1000F0000000000000000000000000000D050008E6
:10010000000000000D0500080D0500080D050008A1
:1001100000000000000000000000000000000000DF
:100120000D0500080D0500080D0500080D05000867
:100130000D050008000000000000000000000000A5
:100140000000000000000000000000000D05000895
:100150000D0500080D0500080D0500080D05000837
:100160000D0500080D05000800000000000000005B
:10017000000000000000000000000000000000007F
:10018000000000000D050008000000000000000055
:040190000D05000851
:1001940010B5054C237833B9044B13B10448AFF3BD
:1001A40000800123237010BD0C000020000000001B
:1001B4008005000808B5034B1BB103490348AFF39E
:1001C400008008BD00000000100000208005000829
:1001D40080B483B000AF0346FB71FB79002B06D1DA
:1001E400094B5B69084A43F02003536105E0064B61
:1001F4005B69054A23F02003536100BF0C37BD46F9
:100204005DF8047B704700BF0000024080B483B0F7
:1002140000AF0346FB7197F90730002B0BDBFB792A
:1002240003F01F02074997F907305B09012000FA20
:1002340002F241F8232000BF0C37BD465DF8047B71
:10024400704700BF00E100E080B400AF0F4B1B6CAF
:100254000E4A43F0010313644FF0804340F23F62BF
:100264009A624FF080436422DA624FF080430022A6
:100274005A624FF080431B684FF0804243F0010301
:10028400136000BFBD465DF8047B70470038024030
:1002940080B500AF4FF08043DB684FF0804243F0FD
:1002A4000103D3601C20FFF7B1FF00BF80BD80B500
:1002B40000AF00F067F800BF80BD000080B400AF5D
:1002C400094B1B6903F00103002B14BF0123002316
:1002D400DBB21A46054B1A70044B1B781846BD4610
:1002E4005DF8047B704700BF000002402C00002032
:1002F40080B500AF1A4B1B6B194A43F0010313631B
:10030400184B1B68174A43F480631360154B1B6832
:10031400144A23F400631360124B1B68114A23F040
:10032400010313600F4B1B680E4A23F00203136092
:100334000C4BDB680B4A43F00403D360094BDB68C6
:10034400084A23F00203D360FFF77EFFFFF7A0FF04
:100354004FF4FA7000F05CF800F04EF8FEE700BFCE
:10036400003802400000024080B500AF4FF08043E7
:100374001B694FF0804223F001031361FFF797FFDD
:1003840000BF80BD80B584B000AF184B1B68002B44
:1003940017D0174B1B68002B13D1FFF78FFF0346B1
:1003A40007EE903AF8EE677AC7ED037AD7ED037A51
:1003B400FCEEE77AC7ED017A3B79DBB21846FFF72A
:1003C40007FF0B4B1B680133094A1360084B1B687A
:1003D400084A1268013293FBF2F102FB01F29B1A04
:1003E400034A136000BF1037BD4680BD00000020E3
:1003F400280000200400002080B400AF034B012239
:100404001A6000BFBD465DF8047B70470000002001
:1004140080B483B000AF78607B68074A82FB031224
:100424005211DB17D31A054A136000BF0C37BD46BF
:100434005DF8047B704700BF1F85EB51040000206A
:1004440080B400AFFEE780B400AFFEE780B400AF35
:10045400FEE780B400AFFEE780B400AFFEE780B4EF
:1004640000AF00BFBD465DF8047B704780B400AFA9
:1004740000BFBD465DF8047B704780B400AF00BF89
:10048400BD465DF8047B704780B500AF00F03EF8D0
:1004940000BF80BD80B400AF064BD3F88830054A56
:1004A40043F47003C2F8883000BFBD465DF8047B96
:1004B400704700BF00ED00E0DFF834D00D480E496E
:1004C4000E4A002302E0D458C4500433C4188C42AA
:1004D400F9D30B4A0B4C002301E013600432A2420F
:1004E400FBD3FFF7D7FF00F025F8FFF701FF7047B4
:1004F40000000120000000200C000020A0050008DE
:100504000C00002034000020FEE7000080B400AF9F
:10051400064B1B781A46064B1B681344044A1360A7
:1005240000BFBD465DF8047B704700BF0800002093
:100534003000002070B50D4D0D4C641BA410002636
:10054400A64209D10B4D0C4C00F018F8641BA41002
:100554000026A64205D170BD55F8043B98470136E4
:10056400EEE755F8043B98470136F2E79805000892
:1005740098050008980500089C050008F8B500BF18
:10058400F8BC08BC9E467047F8B500BFF8BC08BC70
:040594009E467047C8
:04059800B90100089D
:04059C0095010008BD
:0C05A0000100000001000000010000004C
:04000005080004BD2E
:00000001FF
